{
  "_format": "hh-sol-artifact-1",
  "contractName": "DegenToken",
  "sourceName": "contracts/DegenToken.sol",
  "abi": [
    {
      "inputs": [],
      "stateMutability": "nonpayable",
      "type": "constructor"
    },
    {
      "anonymous": false,
      "inputs": [
        {
          "indexed": true,
          "internalType": "address",
          "name": "owner",
          "type": "address"
        },
        {
          "indexed": true,
          "internalType": "address",
          "name": "spender",
          "type": "address"
        },
        {
          "indexed": false,
          "internalType": "uint256",
          "name": "value",
          "type": "uint256"
        }
      ],
      "name": "Approval",
      "type": "event"
    },
    {
      "anonymous": false,
      "inputs": [
        {
          "indexed": true,
          "internalType": "address",
          "name": "previousOwner",
          "type": "address"
        },
        {
          "indexed": true,
          "internalType": "address",
          "name": "newOwner",
          "type": "address"
        }
      ],
      "name": "OwnershipTransferred",
      "type": "event"
    },
    {
      "anonymous": false,
      "inputs": [
        {
          "indexed": true,
          "internalType": "address",
          "name": "from",
          "type": "address"
        },
        {
          "indexed": true,
          "internalType": "address",
          "name": "to",
          "type": "address"
        },
        {
          "indexed": false,
          "internalType": "uint256",
          "name": "value",
          "type": "uint256"
        }
      ],
      "name": "Transfer",
      "type": "event"
    },
    {
      "inputs": [
        {
          "internalType": "address",
          "name": "owner",
          "type": "address"
        },
        {
          "internalType": "address",
          "name": "spender",
          "type": "address"
        }
      ],
      "name": "allowance",
      "outputs": [
        {
          "internalType": "uint256",
          "name": "",
          "type": "uint256"
        }
      ],
      "stateMutability": "view",
      "type": "function"
    },
    {
      "inputs": [
        {
          "internalType": "address",
          "name": "spender",
          "type": "address"
        },
        {
          "internalType": "uint256",
          "name": "amount",
          "type": "uint256"
        }
      ],
      "name": "approve",
      "outputs": [
        {
          "internalType": "bool",
          "name": "",
          "type": "bool"
        }
      ],
      "stateMutability": "nonpayable",
      "type": "function"
    },
    {
      "inputs": [
        {
          "internalType": "address",
          "name": "account",
          "type": "address"
        }
      ],
      "name": "balanceOf",
      "outputs": [
        {
          "internalType": "uint256",
          "name": "",
          "type": "uint256"
        }
      ],
      "stateMutability": "view",
      "type": "function"
    },
    {
      "inputs": [
        {
          "internalType": "uint256",
          "name": "amount",
          "type": "uint256"
        }
      ],
      "name": "burnToken",
      "outputs": [],
      "stateMutability": "nonpayable",
      "type": "function"
    },
    {
      "inputs": [],
      "name": "decimals",
      "outputs": [
        {
          "internalType": "uint8",
          "name": "",
          "type": "uint8"
        }
      ],
      "stateMutability": "view",
      "type": "function"
    },
    {
      "inputs": [
        {
          "internalType": "address",
          "name": "spender",
          "type": "address"
        },
        {
          "internalType": "uint256",
          "name": "subtractedValue",
          "type": "uint256"
        }
      ],
      "name": "decreaseAllowance",
      "outputs": [
        {
          "internalType": "bool",
          "name": "",
          "type": "bool"
        }
      ],
      "stateMutability": "nonpayable",
      "type": "function"
    },
    {
      "inputs": [
        {
          "internalType": "address",
          "name": "spender",
          "type": "address"
        },
        {
          "internalType": "uint256",
          "name": "addedValue",
          "type": "uint256"
        }
      ],
      "name": "increaseAllowance",
      "outputs": [
        {
          "internalType": "bool",
          "name": "",
          "type": "bool"
        }
      ],
      "stateMutability": "nonpayable",
      "type": "function"
    },
    {
      "inputs": [
        {
          "internalType": "uint256",
          "name": "",
          "type": "uint256"
        }
      ],
      "name": "items_title",
      "outputs": [
        {
          "internalType": "string",
          "name": "",
          "type": "string"
        }
      ],
      "stateMutability": "view",
      "type": "function"
    },
    {
      "inputs": [
        {
          "internalType": "uint256",
          "name": "index",
          "type": "uint256"
        }
      ],
      "name": "listingItems",
      "outputs": [
        {
          "internalType": "string",
          "name": "",
          "type": "string"
        }
      ],
      "stateMutability": "nonpayable",
      "type": "function"
    },
    {
      "inputs": [
        {
          "internalType": "address",
          "name": "to",
          "type": "address"
        },
        {
          "internalType": "uint256",
          "name": "amount",
          "type": "uint256"
        }
      ],
      "name": "mint",
      "outputs": [],
      "stateMutability": "nonpayable",
      "type": "function"
    },
    {
      "inputs": [],
      "name": "name",
      "outputs": [
        {
          "internalType": "string",
          "name": "",
          "type": "string"
        }
      ],
      "stateMutability": "view",
      "type": "function"
    },
    {
      "inputs": [],
      "name": "owner",
      "outputs": [
        {
          "internalType": "address",
          "name": "",
          "type": "address"
        }
      ],
      "stateMutability": "view",
      "type": "function"
    },
    {
      "inputs": [
        {
          "internalType": "uint256",
          "name": "to_redeem",
          "type": "uint256"
        }
      ],
      "name": "redeem",
      "outputs": [
        {
          "internalType": "string",
          "name": "",
          "type": "string"
        }
      ],
      "stateMutability": "nonpayable",
      "type": "function"
    },
    {
      "inputs": [],
      "name": "renounceOwnership",
      "outputs": [],
      "stateMutability": "nonpayable",
      "type": "function"
    },
    {
      "inputs": [],
      "name": "symbol",
      "outputs": [
        {
          "internalType": "string",
          "name": "",
          "type": "string"
        }
      ],
      "stateMutability": "view",
      "type": "function"
    },
    {
      "inputs": [],
      "name": "totalSupply",
      "outputs": [
        {
          "internalType": "uint256",
          "name": "",
          "type": "uint256"
        }
      ],
      "stateMutability": "view",
      "type": "function"
    },
    {
      "inputs": [
        {
          "internalType": "address",
          "name": "to",
          "type": "address"
        },
        {
          "internalType": "uint256",
          "name": "amount",
          "type": "uint256"
        }
      ],
      "name": "transfer",
      "outputs": [
        {
          "internalType": "bool",
          "name": "",
          "type": "bool"
        }
      ],
      "stateMutability": "nonpayable",
      "type": "function"
    },
    {
      "inputs": [
        {
          "internalType": "address",
          "name": "from",
          "type": "address"
        },
        {
          "internalType": "address",
          "name": "to",
          "type": "address"
        },
        {
          "internalType": "uint256",
          "name": "amount",
          "type": "uint256"
        }
      ],
      "name": "transferFrom",
      "outputs": [
        {
          "internalType": "bool",
          "name": "",
          "type": "bool"
        }
      ],
      "stateMutability": "nonpayable",
      "type": "function"
    },
    {
      "inputs": [
        {
          "internalType": "address",
          "name": "newOwner",
          "type": "address"
        }
      ],
      "name": "transferOwnership",
      "outputs": [],
      "stateMutability": "nonpayable",
      "type": "function"
    },
    {
      "inputs": [
        {
          "internalType": "address",
          "name": "to",
          "type": "address"
        },
        {
          "internalType": "uint256",
          "name": "amount",
          "type": "uint256"
        }
      ],
      "name": "transferToken",
      "outputs": [],
      "stateMutability": "nonpayable",
      "type": "function"
    },
    {
      "inputs": [],
      "name": "viewBalance",
      "outputs": [
        {
          "internalType": "uint256",
          "name": "",
          "type": "uint256"
        }
      ],
      "stateMutability": "view",
      "type": "function"
    }
  ],
  "bytecode": "0x608060405260405180606001604052806040518060400160405280601181526020017f312e20506c6174696e756d20426164676500000000000000000000000000000081525081526020016040518060400160405280600f81526020017f322e20476f6c64656e204261646765000000000000000000000000000000000081525081526020016040518060400160405280600f81526020017f332e2053696c76657220426164676500000000000000000000000000000000008152508152506006906003620000d092919062000265565b50348015620000de57600080fd5b506040518060400160405280600581526020017f446567656e0000000000000000000000000000000000000000000000000000008152506040518060400160405280600381526020017f44474e000000000000000000000000000000000000000000000000000000000081525081600390816200015c9190620005cc565b5080600490816200016e9190620005cc565b50505062000191620001856200019760201b60201c565b6200019f60201b60201c565b620006b3565b600033905090565b6000600560009054906101000a900473ffffffffffffffffffffffffffffffffffffffff16905081600560006101000a81548173ffffffffffffffffffffffffffffffffffffffff021916908373ffffffffffffffffffffffffffffffffffffffff1602179055508173ffffffffffffffffffffffffffffffffffffffff168173ffffffffffffffffffffffffffffffffffffffff167f8be0079c531659141344cd1fd0a4f28419497f9722a3daafe3b4186f6b6457e060405160405180910390a35050565b828054828255906000526020600020908101928215620002b2579160200282015b82811115620002b1578251829081620002a09190620005cc565b509160200191906001019062000286565b5b509050620002c19190620002c5565b5090565b5b80821115620002e95760008181620002df9190620002ed565b50600101620002c6565b5090565b508054620002fb90620003bb565b6000825580601f106200030f575062000330565b601f0160209004906000526020600020908101906200032f919062000333565b5b50565b5b808211156200034e57600081600090555060010162000334565b5090565b600081519050919050565b7f4e487b7100000000000000000000000000000000000000000000000000000000600052604160045260246000fd5b7f4e487b7100000000000000000000000000000000000000000000000000000000600052602260045260246000fd5b60006002820490506001821680620003d457607f821691505b602082108103620003ea57620003e96200038c565b5b50919050565b60008190508160005260206000209050919050565b60006020601f8301049050919050565b600082821b905092915050565b600060088302620004547fffffffffffffffffffffffffffffffffffffffffffffffffffffffffffffffff8262000415565b62000460868362000415565b95508019841693508086168417925050509392505050565b6000819050919050565b6000819050919050565b6000620004ad620004a7620004a18462000478565b62000482565b62000478565b9050919050565b6000819050919050565b620004c9836200048c565b620004e1620004d882620004b4565b84845462000422565b825550505050565b600090565b620004f8620004e9565b62000505818484620004be565b505050565b5b818110156200052d5762000521600082620004ee565b6001810190506200050b565b5050565b601f8211156200057c576200054681620003f0565b620005518462000405565b8101602085101562000561578190505b62000579620005708562000405565b8301826200050a565b50505b505050565b600082821c905092915050565b6000620005a16000198460080262000581565b1980831691505092915050565b6000620005bc83836200058e565b9150826002028217905092915050565b620005d78262000352565b67ffffffffffffffff811115620005f357620005f26200035d565b5b620005ff8254620003bb565b6200060c82828562000531565b600060209050601f8311600181146200064457600084156200062f578287015190505b6200063b8582620005ae565b865550620006ab565b601f1984166200065486620003f0565b60005b828110156200067e5784890151825560018201915060208501945060208101905062000657565b868310156200069e57848901516200069a601f8916826200058e565b8355505b6001600288020188555050505b505050505050565b6121c780620006c36000396000f3fe608060405234801561001057600080fd5b50600436106101375760003560e01c80634e3c4fe5116100b857806395d89b411161007c57806395d89b4114610350578063a457c2d71461036e578063a9059cbb1461039e578063db006a75146103ce578063dd62ed3e146103fe578063f2fde38b1461042e57610137565b80634e3c4fe5146102ac57806370a08231146102dc578063715018a61461030c5780637b47ec1a146103165780638da5cb5b1461033257610137565b8063313ce567116100ff578063313ce567146101f457806331e3a12e1461021257806339509351146102425780633ff1e05b1461027257806340c10f191461029057610137565b806306fdde031461013c578063095ea7b31461015a5780631072cbea1461018a57806318160ddd146101a657806323b872dd146101c4575b600080fd5b61014461044a565b6040516101519190611724565b60405180910390f35b610174600480360381019061016f91906117df565b6104dc565b604051610181919061183a565b60405180910390f35b6101a4600480360381019061019f91906117df565b6104ff565b005b6101ae610565565b6040516101bb9190611864565b60405180910390f35b6101de60048036038101906101d9919061187f565b61056f565b6040516101eb919061183a565b60405180910390f35b6101fc61059e565b60405161020991906118ee565b60405180910390f35b61022c60048036038101906102279190611909565b6105a7565b6040516102399190611724565b60405180910390f35b61025c600480360381019061025791906117df565b610657565b604051610269919061183a565b60405180910390f35b61027a61068e565b6040516102879190611864565b60405180910390f35b6102aa60048036038101906102a591906117df565b61069e565b005b6102c660048036038101906102c19190611909565b6106b4565b6040516102d39190611724565b60405180910390f35b6102f660048036038101906102f19190611936565b610760565b6040516103039190611864565b60405180910390f35b6103146107a8565b005b610330600480360381019061032b9190611909565b6107bc565b005b61033a610814565b6040516103479190611972565b60405180910390f35b61035861083e565b6040516103659190611724565b60405180910390f35b610388600480360381019061038391906117df565b6108d0565b604051610395919061183a565b60405180910390f35b6103b860048036038101906103b391906117df565b610947565b6040516103c5919061183a565b60405180910390f35b6103e860048036038101906103e39190611909565b61096a565b6040516103f59190611724565b60405180910390f35b6104186004803603810190610413919061198d565b610c46565b6040516104259190611864565b60405180910390f35b61044860048036038101906104439190611936565b610ccd565b005b606060038054610459906119fc565b80601f0160208091040260200160405190810160405280929190818152602001828054610485906119fc565b80156104d25780601f106104a7576101008083540402835291602001916104d2565b820191906000526020600020905b8154815290600101906020018083116104b557829003601f168201915b5050505050905090565b6000806104e7610d50565b90506104f4818585610d58565b600191505092915050565b8061050933610760565b101561054a576040517f08c379a000000000000000000000000000000000000000000000000000000000815260040161054190611a79565b60405180910390fd5b61055433826104dc565b5061056033838361056f565b505050565b6000600254905090565b60008061057a610d50565b9050610587858285610f21565b610592858585610fad565b60019150509392505050565b60006012905090565b6060600682815481106105bd576105bc611a99565b5b9060005260206000200180546105d2906119fc565b80601f01602080910402602001604051908101604052809291908181526020018280546105fe906119fc565b801561064b5780601f106106205761010080835404028352916020019161064b565b820191906000526020600020905b81548152906001019060200180831161062e57829003601f168201915b50505050509050919050565b600080610662610d50565b90506106838185856106748589610c46565b61067e9190611af7565b610d58565b600191505092915050565b600061069933610760565b905090565b6106a6611223565b6106b082826112a1565b5050565b600681815481106106c457600080fd5b9060005260206000200160009150905080546106df906119fc565b80601f016020809104026020016040519081016040528092919081815260200182805461070b906119fc565b80156107585780601f1061072d57610100808354040283529160200191610758565b820191906000526020600020905b81548152906001019060200180831161073b57829003601f168201915b505050505081565b60008060008373ffffffffffffffffffffffffffffffffffffffff1673ffffffffffffffffffffffffffffffffffffffff168152602001908152602001600020549050919050565b6107b0611223565b6107ba60006113f7565b565b806107c633610760565b1015610807576040517f08c379a00000000000000000000000000000000000000000000000000000000081526004016107fe90611a79565b60405180910390fd5b61081133826114bd565b50565b6000600560009054906101000a900473ffffffffffffffffffffffffffffffffffffffff16905090565b60606004805461084d906119fc565b80601f0160208091040260200160405190810160405280929190818152602001828054610879906119fc565b80156108c65780601f1061089b576101008083540402835291602001916108c6565b820191906000526020600020905b8154815290600101906020018083116108a957829003601f168201915b5050505050905090565b6000806108db610d50565b905060006108e98286610c46565b90508381101561092e576040517f08c379a000000000000000000000000000000000000000000000000000000000815260040161092590611b9d565b60405180910390fd5b61093b8286868403610d58565b60019250505092915050565b600080610952610d50565b905061095f818585610fad565b600191505092915050565b6060603261097733610760565b10156109b8576040517f08c379a00000000000000000000000000000000000000000000000000000000081526004016109af90611a79565b60405180910390fd5b60966109c333610760565b101580156109d15750600182145b15610a90576109e13360966114bd565b60066002815481106109f6576109f5611a99565b5b906000526020600020018054610a0b906119fc565b80601f0160208091040260200160405190810160405280929190818152602001828054610a37906119fc565b8015610a845780601f10610a5957610100808354040283529160200191610a84565b820191906000526020600020905b815481529060010190602001808311610a6757829003601f168201915b50505050509050610c41565b6064610a9b33610760565b10158015610aa95750600282145b15610b6857610ab93360646114bd565b6006600181548110610ace57610acd611a99565b5b906000526020600020018054610ae3906119fc565b80601f0160208091040260200160405190810160405280929190818152602001828054610b0f906119fc565b8015610b5c5780601f10610b3157610100808354040283529160200191610b5c565b820191906000526020600020905b815481529060010190602001808311610b3f57829003601f168201915b50505050509050610c41565b6032610b7333610760565b10158015610b815750600382145b15610c4057610b913360326114bd565b6006600081548110610ba657610ba5611a99565b5b906000526020600020018054610bbb906119fc565b80601f0160208091040260200160405190810160405280929190818152602001828054610be7906119fc565b8015610c345780601f10610c0957610100808354040283529160200191610c34565b820191906000526020600020905b815481529060010190602001808311610c1757829003601f168201915b50505050509050610c41565b5b919050565b6000600160008473ffffffffffffffffffffffffffffffffffffffff1673ffffffffffffffffffffffffffffffffffffffff16815260200190815260200160002060008373ffffffffffffffffffffffffffffffffffffffff1673ffffffffffffffffffffffffffffffffffffffff16815260200190815260200160002054905092915050565b610cd5611223565b600073ffffffffffffffffffffffffffffffffffffffff168173ffffffffffffffffffffffffffffffffffffffff1603610d44576040517f08c379a0000000000000000000000000000000000000000000000000000000008152600401610d3b90611c2f565b60405180910390fd5b610d4d816113f7565b50565b600033905090565b600073ffffffffffffffffffffffffffffffffffffffff168373ffffffffffffffffffffffffffffffffffffffff1603610dc7576040517f08c379a0000000000000000000000000000000000000000000000000000000008152600401610dbe90611cc1565b60405180910390fd5b600073ffffffffffffffffffffffffffffffffffffffff168273ffffffffffffffffffffffffffffffffffffffff1603610e36576040517f08c379a0000000000000000000000000000000000000000000000000000000008152600401610e2d90611d53565b60405180910390fd5b80600160008573ffffffffffffffffffffffffffffffffffffffff1673ffffffffffffffffffffffffffffffffffffffff16815260200190815260200160002060008473ffffffffffffffffffffffffffffffffffffffff1673ffffffffffffffffffffffffffffffffffffffff168152602001908152602001600020819055508173ffffffffffffffffffffffffffffffffffffffff168373ffffffffffffffffffffffffffffffffffffffff167f8c5be1e5ebec7d5bd14f71427d1e84f3dd0314c0f7b2291e5b200ac8c7c3b92583604051610f149190611864565b60405180910390a3505050565b6000610f2d8484610c46565b90507fffffffffffffffffffffffffffffffffffffffffffffffffffffffffffffffff8114610fa75781811015610f99576040517f08c379a0000000000000000000000000000000000000000000000000000000008152600401610f9090611dbf565b60405180910390fd5b610fa68484848403610d58565b5b50505050565b600073ffffffffffffffffffffffffffffffffffffffff168373ffffffffffffffffffffffffffffffffffffffff160361101c576040517f08c379a000000000000000000000000000000000000000000000000000000000815260040161101390611e51565b60405180910390fd5b600073ffffffffffffffffffffffffffffffffffffffff168273ffffffffffffffffffffffffffffffffffffffff160361108b576040517f08c379a000000000000000000000000000000000000000000000000000000000815260040161108290611ee3565b60405180910390fd5b61109683838361168a565b60008060008573ffffffffffffffffffffffffffffffffffffffff1673ffffffffffffffffffffffffffffffffffffffff1681526020019081526020016000205490508181101561111c576040517f08c379a000000000000000000000000000000000000000000000000000000000815260040161111390611f75565b60405180910390fd5b8181036000808673ffffffffffffffffffffffffffffffffffffffff1673ffffffffffffffffffffffffffffffffffffffff16815260200190815260200160002081905550816000808573ffffffffffffffffffffffffffffffffffffffff1673ffffffffffffffffffffffffffffffffffffffff168152602001908152602001600020600082825401925050819055508273ffffffffffffffffffffffffffffffffffffffff168473ffffffffffffffffffffffffffffffffffffffff167fddf252ad1be2c89b69c2b068fc378daa952ba7f163c4a11628f55a4df523b3ef8460405161120a9190611864565b60405180910390a361121d84848461168f565b50505050565b61122b610d50565b73ffffffffffffffffffffffffffffffffffffffff16611249610814565b73ffffffffffffffffffffffffffffffffffffffff161461129f576040517f08c379a000000000000000000000000000000000000000000000000000000000815260040161129690611fe1565b60405180910390fd5b565b600073ffffffffffffffffffffffffffffffffffffffff168273ffffffffffffffffffffffffffffffffffffffff1603611310576040517f08c379a00000000000000000000000000000000000000000000000000000000081526004016113079061204d565b60405180910390fd5b61131c6000838361168a565b806002600082825461132e9190611af7565b92505081905550806000808473ffffffffffffffffffffffffffffffffffffffff1673ffffffffffffffffffffffffffffffffffffffff168152602001908152602001600020600082825401925050819055508173ffffffffffffffffffffffffffffffffffffffff16600073ffffffffffffffffffffffffffffffffffffffff167fddf252ad1be2c89b69c2b068fc378daa952ba7f163c4a11628f55a4df523b3ef836040516113df9190611864565b60405180910390a36113f36000838361168f565b5050565b6000600560009054906101000a900473ffffffffffffffffffffffffffffffffffffffff16905081600560006101000a81548173ffffffffffffffffffffffffffffffffffffffff021916908373ffffffffffffffffffffffffffffffffffffffff1602179055508173ffffffffffffffffffffffffffffffffffffffff168173ffffffffffffffffffffffffffffffffffffffff167f8be0079c531659141344cd1fd0a4f28419497f9722a3daafe3b4186f6b6457e060405160405180910390a35050565b600073ffffffffffffffffffffffffffffffffffffffff168273ffffffffffffffffffffffffffffffffffffffff160361152c576040517f08c379a0000000000000000000000000000000000000000000000000000000008152600401611523906120df565b60405180910390fd5b6115388260008361168a565b60008060008473ffffffffffffffffffffffffffffffffffffffff1673ffffffffffffffffffffffffffffffffffffffff168152602001908152602001600020549050818110156115be576040517f08c379a00000000000000000000000000000000000000000000000000000000081526004016115b590612171565b60405180910390fd5b8181036000808573ffffffffffffffffffffffffffffffffffffffff1673ffffffffffffffffffffffffffffffffffffffff1681526020019081526020016000208190555081600260008282540392505081905550600073ffffffffffffffffffffffffffffffffffffffff168373ffffffffffffffffffffffffffffffffffffffff167fddf252ad1be2c89b69c2b068fc378daa952ba7f163c4a11628f55a4df523b3ef846040516116719190611864565b60405180910390a36116858360008461168f565b505050565b505050565b505050565b600081519050919050565b600082825260208201905092915050565b60005b838110156116ce5780820151818401526020810190506116b3565b60008484015250505050565b6000601f19601f8301169050919050565b60006116f682611694565b611700818561169f565b93506117108185602086016116b0565b611719816116da565b840191505092915050565b6000602082019050818103600083015261173e81846116eb565b905092915050565b600080fd5b600073ffffffffffffffffffffffffffffffffffffffff82169050919050565b60006117768261174b565b9050919050565b6117868161176b565b811461179157600080fd5b50565b6000813590506117a38161177d565b92915050565b6000819050919050565b6117bc816117a9565b81146117c757600080fd5b50565b6000813590506117d9816117b3565b92915050565b600080604083850312156117f6576117f5611746565b5b600061180485828601611794565b9250506020611815858286016117ca565b9150509250929050565b60008115159050919050565b6118348161181f565b82525050565b600060208201905061184f600083018461182b565b92915050565b61185e816117a9565b82525050565b60006020820190506118796000830184611855565b92915050565b60008060006060848603121561189857611897611746565b5b60006118a686828701611794565b93505060206118b786828701611794565b92505060406118c8868287016117ca565b9150509250925092565b600060ff82169050919050565b6118e8816118d2565b82525050565b600060208201905061190360008301846118df565b92915050565b60006020828403121561191f5761191e611746565b5b600061192d848285016117ca565b91505092915050565b60006020828403121561194c5761194b611746565b5b600061195a84828501611794565b91505092915050565b61196c8161176b565b82525050565b60006020820190506119876000830184611963565b92915050565b600080604083850312156119a4576119a3611746565b5b60006119b285828601611794565b92505060206119c385828601611794565b9150509250929050565b7f4e487b7100000000000000000000000000000000000000000000000000000000600052602260045260246000fd5b60006002820490506001821680611a1457607f821691505b602082108103611a2757611a266119cd565b5b50919050565b7f496e73756666696369656e7420546f6b656e7300000000000000000000000000600082015250565b6000611a6360138361169f565b9150611a6e82611a2d565b602082019050919050565b60006020820190508181036000830152611a9281611a56565b9050919050565b7f4e487b7100000000000000000000000000000000000000000000000000000000600052603260045260246000fd5b7f4e487b7100000000000000000000000000000000000000000000000000000000600052601160045260246000fd5b6000611b02826117a9565b9150611b0d836117a9565b9250828201905080821115611b2557611b24611ac8565b5b92915050565b7f45524332303a2064656372656173656420616c6c6f77616e63652062656c6f7760008201527f207a65726f000000000000000000000000000000000000000000000000000000602082015250565b6000611b8760258361169f565b9150611b9282611b2b565b604082019050919050565b60006020820190508181036000830152611bb681611b7a565b9050919050565b7f4f776e61626c653a206e6577206f776e657220697320746865207a65726f206160008201527f6464726573730000000000000000000000000000000000000000000000000000602082015250565b6000611c1960268361169f565b9150611c2482611bbd565b604082019050919050565b60006020820190508181036000830152611c4881611c0c565b9050919050565b7f45524332303a20617070726f76652066726f6d20746865207a65726f2061646460008201527f7265737300000000000000000000000000000000000000000000000000000000602082015250565b6000611cab60248361169f565b9150611cb682611c4f565b604082019050919050565b60006020820190508181036000830152611cda81611c9e565b9050919050565b7f45524332303a20617070726f766520746f20746865207a65726f20616464726560008201527f7373000000000000000000000000000000000000000000000000000000000000602082015250565b6000611d3d60228361169f565b9150611d4882611ce1565b604082019050919050565b60006020820190508181036000830152611d6c81611d30565b9050919050565b7f45524332303a20696e73756666696369656e7420616c6c6f77616e6365000000600082015250565b6000611da9601d8361169f565b9150611db482611d73565b602082019050919050565b60006020820190508181036000830152611dd881611d9c565b9050919050565b7f45524332303a207472616e736665722066726f6d20746865207a65726f20616460008201527f6472657373000000000000000000000000000000000000000000000000000000602082015250565b6000611e3b60258361169f565b9150611e4682611ddf565b604082019050919050565b60006020820190508181036000830152611e6a81611e2e565b9050919050565b7f45524332303a207472616e7366657220746f20746865207a65726f206164647260008201527f6573730000000000000000000000000000000000000000000000000000000000602082015250565b6000611ecd60238361169f565b9150611ed882611e71565b604082019050919050565b60006020820190508181036000830152611efc81611ec0565b9050919050565b7f45524332303a207472616e7366657220616d6f756e742065786365656473206260008201527f616c616e63650000000000000000000000000000000000000000000000000000602082015250565b6000611f5f60268361169f565b9150611f6a82611f03565b604082019050919050565b60006020820190508181036000830152611f8e81611f52565b9050919050565b7f4f776e61626c653a2063616c6c6572206973206e6f7420746865206f776e6572600082015250565b6000611fcb60208361169f565b9150611fd682611f95565b602082019050919050565b60006020820190508181036000830152611ffa81611fbe565b9050919050565b7f45524332303a206d696e7420746f20746865207a65726f206164647265737300600082015250565b6000612037601f8361169f565b915061204282612001565b602082019050919050565b600060208201905081810360008301526120668161202a565b9050919050565b7f45524332303a206275726e2066726f6d20746865207a65726f2061646472657360008201527f7300000000000000000000000000000000000000000000000000000000000000602082015250565b60006120c960218361169f565b91506120d48261206d565b604082019050919050565b600060208201905081810360008301526120f8816120bc565b9050919050565b7f45524332303a206275726e20616d6f756e7420657863656564732062616c616e60008201527f6365000000000000000000000000000000000000000000000000000000000000602082015250565b600061215b60228361169f565b9150612166826120ff565b604082019050919050565b6000602082019050818103600083015261218a8161214e565b905091905056fea26469706673582212205d211b6b2ef0f772b2764f0a258c852e34ac817add78bc8690d450d8311b80e964736f6c63430008120033",
  "linkReferences": {},
  "deployedLinkReferences": {}
}